{
  "contractName": "Lottery",
  "abi": [
    {
      "inputs": [],
      "stateMutability": "nonpayable",
      "type": "constructor"
    },
    {
      "inputs": [],
      "name": "lotteryId",
      "outputs": [
        {
          "internalType": "uint256",
          "name": "",
          "type": "uint256"
        }
      ],
      "stateMutability": "view",
      "type": "function",
      "constant": true
    },
    {
      "inputs": [],
      "name": "owner",
      "outputs": [
        {
          "internalType": "address",
          "name": "",
          "type": "address"
        }
      ],
      "stateMutability": "view",
      "type": "function",
      "constant": true
    },
    {
      "inputs": [
        {
          "internalType": "uint256",
          "name": "",
          "type": "uint256"
        }
      ],
      "name": "players",
      "outputs": [
        {
          "internalType": "address payable",
          "name": "",
          "type": "address"
        }
      ],
      "stateMutability": "view",
      "type": "function",
      "constant": true
    },
    {
      "inputs": [
        {
          "internalType": "uint256",
          "name": "",
          "type": "uint256"
        }
      ],
      "name": "winners",
      "outputs": [
        {
          "internalType": "address",
          "name": "",
          "type": "address"
        }
      ],
      "stateMutability": "view",
      "type": "function",
      "constant": true
    },
    {
      "inputs": [],
      "name": "enter",
      "outputs": [],
      "stateMutability": "payable",
      "type": "function",
      "payable": true
    },
    {
      "inputs": [],
      "name": "getPlayers",
      "outputs": [
        {
          "internalType": "address payable[]",
          "name": "",
          "type": "address[]"
        }
      ],
      "stateMutability": "view",
      "type": "function",
      "constant": true
    },
    {
      "inputs": [],
      "name": "getBalance",
      "outputs": [
        {
          "internalType": "uint256",
          "name": "",
          "type": "uint256"
        }
      ],
      "stateMutability": "view",
      "type": "function",
      "constant": true
    },
    {
      "inputs": [],
      "name": "getLotteryId",
      "outputs": [
        {
          "internalType": "uint256",
          "name": "",
          "type": "uint256"
        }
      ],
      "stateMutability": "view",
      "type": "function",
      "constant": true
    },
    {
      "inputs": [],
      "name": "getRandomNumber",
      "outputs": [
        {
          "internalType": "uint256",
          "name": "",
          "type": "uint256"
        }
      ],
      "stateMutability": "view",
      "type": "function",
      "constant": true
    },
    {
      "inputs": [],
      "name": "pickWinner",
      "outputs": [],
      "stateMutability": "nonpayable",
      "type": "function"
    },
    {
      "inputs": [],
      "name": "getWinners",
      "outputs": [
        {
          "internalType": "address[]",
          "name": "",
          "type": "address[]"
        }
      ],
      "stateMutability": "view",
      "type": "function",
      "constant": true
    }
  ],
  "bytecode": "0x608060405234801561001057600080fd5b50336000806101000a81548173ffffffffffffffffffffffffffffffffffffffff021916908373ffffffffffffffffffffffffffffffffffffffff1602179055506000600381905550610d35806100686000396000f3fe60806040526004361061009c5760003560e01c8063a2fb117511610064578063a2fb117514610164578063dbdff2c1146101a1578063df15c37e146101cc578063e580f47b146101f7578063e97dcb6214610222578063f71d96cb1461022c5761009c565b806312065fe0146100a15780635d495aea146100cc5780638b5b9ccc146100e35780638da5cb5b1461010e578063900aafaf14610139575b600080fd5b3480156100ad57600080fd5b506100b6610269565b6040516100c39190610809565b60405180910390f35b3480156100d857600080fd5b506100e1610271565b005b3480156100ef57600080fd5b506100f86104ce565b6040516101059190610914565b60405180910390f35b34801561011a57600080fd5b5061012361055c565b6040516101309190610957565b60405180910390f35b34801561014557600080fd5b5061014e610580565b60405161015b9190610809565b60405180910390f35b34801561017057600080fd5b5061018b600480360381019061018691906109a3565b61058a565b6040516101989190610957565b60405180910390f35b3480156101ad57600080fd5b506101b66105c9565b6040516101c39190610809565b60405180910390f35b3480156101d857600080fd5b506101e16105fc565b6040516101ee9190610a8e565b60405180910390f35b34801561020357600080fd5b5061020c61068a565b6040516102199190610809565b60405180910390f35b61022a610690565b005b34801561023857600080fd5b50610253600480360381019061024e91906109a3565b61070a565b6040516102609190610abf565b60405180910390f35b600047905090565b6000600180549050116102b9576040517f08c379a00000000000000000000000000000000000000000000000000000000081526004016102b090610b5d565b60405180910390fd5b60008054906101000a900473ffffffffffffffffffffffffffffffffffffffff1673ffffffffffffffffffffffffffffffffffffffff163373ffffffffffffffffffffffffffffffffffffffff161461031157600080fd5b60006001805490506103216105c9565b61032b9190610bac565b90506001818154811061034157610340610bdd565b5b9060005260206000200160009054906101000a900473ffffffffffffffffffffffffffffffffffffffff1673ffffffffffffffffffffffffffffffffffffffff166108fc479081150290604051600060405180830381858888f193505050501580156103b1573d6000803e3d6000fd5b506002600182815481106103c8576103c7610bdd565b5b9060005260206000200160009054906101000a900473ffffffffffffffffffffffffffffffffffffffff169080600181540180825580915050600190039060005260206000200160009091909190916101000a81548173ffffffffffffffffffffffffffffffffffffffff021916908373ffffffffffffffffffffffffffffffffffffffff1602179055506003600081548092919061046690610c3b565b9190505550600067ffffffffffffffff81111561048657610485610c83565b5b6040519080825280602002602001820160405280156104b45781602001602082028036833780820191505090505b50600190805190602001906104ca929190610749565b5050565b6060600180548060200260200160405190810160405280929190818152602001828054801561055257602002820191906000526020600020905b8160009054906101000a900473ffffffffffffffffffffffffffffffffffffffff1673ffffffffffffffffffffffffffffffffffffffff1681526020019060010190808311610508575b5050505050905090565b60008054906101000a900473ffffffffffffffffffffffffffffffffffffffff1681565b6000600354905090565b6002818154811061059a57600080fd5b906000526020600020016000915054906101000a900473ffffffffffffffffffffffffffffffffffffffff1681565b600044426040516020016105de929190610cd3565b6040516020818303038152906040528051906020012060001c905090565b6060600280548060200260200160405190810160405280929190818152602001828054801561068057602002820191906000526020600020905b8160009054906101000a900473ffffffffffffffffffffffffffffffffffffffff1673ffffffffffffffffffffffffffffffffffffffff1681526020019060010190808311610636575b5050505050905090565b60035481565b67016345785d8a00003410156106a557600080fd5b6001339080600181540180825580915050600190039060005260206000200160009091909190916101000a81548173ffffffffffffffffffffffffffffffffffffffff021916908373ffffffffffffffffffffffffffffffffffffffff160217905550565b6001818154811061071a57600080fd5b906000526020600020016000915054906101000a900473ffffffffffffffffffffffffffffffffffffffff1681565b8280548282559060005260206000209081019282156107c2579160200282015b828111156107c15782518260006101000a81548173ffffffffffffffffffffffffffffffffffffffff021916908373ffffffffffffffffffffffffffffffffffffffff16021790555091602001919060010190610769565b5b5090506107cf91906107d3565b5090565b5b808211156107ec5760008160009055506001016107d4565b5090565b6000819050919050565b610803816107f0565b82525050565b600060208201905061081e60008301846107fa565b92915050565b600081519050919050565b600082825260208201905092915050565b6000819050602082019050919050565b600073ffffffffffffffffffffffffffffffffffffffff82169050919050565b600061087b82610850565b9050919050565b61088b81610870565b82525050565b600061089d8383610882565b60208301905092915050565b6000602082019050919050565b60006108c182610824565b6108cb818561082f565b93506108d683610840565b8060005b838110156109075781516108ee8882610891565b97506108f9836108a9565b9250506001810190506108da565b5085935050505092915050565b6000602082019050818103600083015261092e81846108b6565b905092915050565b600061094182610850565b9050919050565b61095181610936565b82525050565b600060208201905061096c6000830184610948565b92915050565b600080fd5b610980816107f0565b811461098b57600080fd5b50565b60008135905061099d81610977565b92915050565b6000602082840312156109b9576109b8610972565b5b60006109c78482850161098e565b91505092915050565b600081519050919050565b600082825260208201905092915050565b6000819050602082019050919050565b610a0581610936565b82525050565b6000610a1783836109fc565b60208301905092915050565b6000602082019050919050565b6000610a3b826109d0565b610a4581856109db565b9350610a50836109ec565b8060005b83811015610a81578151610a688882610a0b565b9750610a7383610a23565b925050600181019050610a54565b5085935050505092915050565b60006020820190508181036000830152610aa88184610a30565b905092915050565b610ab981610870565b82525050565b6000602082019050610ad46000830184610ab0565b92915050565b600082825260208201905092915050565b7f63616e2774207069636b2077696e6e65727320776974686f757420706172746960008201527f636970616e747300000000000000000000000000000000000000000000000000602082015250565b6000610b47602783610ada565b9150610b5282610aeb565b604082019050919050565b60006020820190508181036000830152610b7681610b3a565b9050919050565b7f4e487b7100000000000000000000000000000000000000000000000000000000600052601260045260246000fd5b6000610bb7826107f0565b9150610bc2836107f0565b925082610bd257610bd1610b7d565b5b828206905092915050565b7f4e487b7100000000000000000000000000000000000000000000000000000000600052603260045260246000fd5b7f4e487b7100000000000000000000000000000000000000000000000000000000600052601160045260246000fd5b6000610c46826107f0565b91507fffffffffffffffffffffffffffffffffffffffffffffffffffffffffffffffff8203610c7857610c77610c0c565b5b600182019050919050565b7f4e487b7100000000000000000000000000000000000000000000000000000000600052604160045260246000fd5b6000819050919050565b610ccd610cc8826107f0565b610cb2565b82525050565b6000610cdf8285610cbc565b602082019150610cef8284610cbc565b602082019150819050939250505056fea26469706673582212200b78c1bdc53aa56e67ed64a77f0e5f3ca4ab3b5a485289ad46045683c73f211d64736f6c634300080f0033",
  "immutableReferences": {},
  "source": "// SPDX-License-Identifier: MIT\r\npragma solidity ^0.8.15;\r\n\r\ncontract Lottery {\r\n    //State / Storage variable\r\n    address public owner;\r\n    address payable[] public players;\r\n    address[] public winners;\r\n    uint public lotteryId;\r\n\r\n    //Constructor - this runs when the contract is deployed.\r\n    constructor() {\r\n        owner = msg.sender;\r\n        lotteryId = 0;\r\n\r\n    }\r\n\r\n    //Enter function\r\n    function enter() public payable {\r\n        require(msg.value >= 0.1 ether);\r\n        players.push(payable(msg.sender));\r\n    }\r\n\r\n    //Get players\r\n\r\n    function getPlayers() public view returns (address payable[] memory){\r\n        return players;\r\n    }\r\n\r\n    //Get Balance of contract\r\n    function getBalance() public view returns (uint) {\r\n        return address(this).balance;\r\n    }\r\n\r\n    //Get Lottery Id\r\n    function getLotteryId() public view returns (uint) {\r\n        return lotteryId;\r\n    }\r\n\r\n    //Get random number (helper function for picking winner)\r\n    function getRandomNumber() public view returns (uint) {\r\n        return uint(keccak256(abi.encodePacked(block.difficulty,block.timestamp)));\r\n    }\r\n\r\n    // Pick Winner\r\n    function pickWinner() public {\r\n        require(players.length>0, \"can't pick winners without participants\");\r\n        require(msg.sender == owner);\r\n        uint randomIndex = getRandomNumber() % players.length;\r\n        players[randomIndex].transfer(address(this).balance);\r\n        winners.push(players[randomIndex]);\r\n        lotteryId++;\r\n\r\n        //Clear the players array.\r\n        players = new address payable[](0);\r\n    }\r\n\r\n    //Get Winners \r\n    function getWinners() public view returns (address[] memory){\r\n        return winners;\r\n    }\r\n\r\n    \r\n\r\n        \r\n}",
  "sourcePath": "d:\\Next js\\web 3 projects\\lottery-app\\contracts\\Lottery.sol",
  "compiler": {
    "name": "solc",
    "version": "0.8.15+commit.e14f2714.Emscripten.clang"
  },
  "schemaVersion": "3.4.11",
  "updatedAt": "2023-01-10T13:18:07.046Z",
  "networkType": "ethereum",
  "devdoc": {
    "kind": "dev",
    "methods": {},
    "version": 1
  },
  "userdoc": {
    "kind": "user",
    "methods": {},
    "version": 1
  }
}